:100000000C947E010C9478070C944D070C942207F5
:100010000C94F7060C94CC060C94A1060C9476066E
:100020000C944B060C94AF010C94AF010C94AF01EF
:100030000C94AF010C94AF010C94AF010C94AF0180
:100040000C94AF010C94AF010C94AF010C94AF0170
:100050000C94AF010C94AF010C94AF010C94010609
:100060000C94AF010C94CD070C94A3070C94AF0132
:100070000C94AF010C94AF010C94AF010C94AF0140
:100080000C94AF010C94AF010C94AF010C94AF0130
:100090000C94AF010C94AF010C94AF010C94AF0120
:1000A0000C94AF010C94AF010C94AF010C94AF0110
:1000B0000C94AF010C94AF010C94AF010C94AF0100
:1000C0000C94AF010C94AF010C94AF010C94AF01F0
:1000D0000C94AF010C94AF010C94AF010C94AF01E0
:1000E0000C94AF010C94F4010C940C020C94520388
:1000F0000C94F9030C94A0020C946F020C9443032B
:100100000C9492020C94A6020C94EC010C948E02B6
:100110000C94F1090C946B020C9466030C948A0203
:100120000C942D080C9474030C9473020C949B048F
:100130000C94E9090C94EB090C947A020C94EF09E5
:100140000C94E7090C94F3090C9484020C94540267
:100150000C9414020C9459020C9480020C94150314
:100160000C94A9090C94AA020C94E4010C94FC01CF
:100170000C9498020C949C020C9477020C94AC039F
:100180000C9416030C941C025E01011F0103030171
:10019000008A02010A010202010064001E47040BEA
:1001A0000906007C0101060103030100F401060EAB
:1001B0000102020100C201170101020201019600C1
:1001C000023E0106060100C800038207100310006A
:1001D000C800820710071003016D0112010301011D
:1001E00003010E0124010102020101400124010169
:1001F0000202010100002100240027002A002D0036
:100200003000330001010000040107010A01000071
:100210002200250028002B002E00310034000201AE
:100220000000050108010B01050505050705080883
:100230000808020202020A0A080804040404010170
:100240000101010101010303030303030303040785
:1002500007070C0C0C0C0C0C0C0C0202020206061C
:100260000606060606060B0B0B0B0B0B0B0B01020F
:1002700010202008081020401020408002010201B8
:100280000804020101020408102040808040201070
:1002900008040201800402018040201008040201C9
:1002A0000804020101020408102040800102040831
:1002B0001020408000000A0B02090C0D0E080703F5
:1002C0000401000000000000000000000000000029
:1002D000000000000000000000000000000000001E
:1002E00012111000000000000000000000000000DB
:1002F000000000000000000000002D0811241FBEB7
:10030000CFEFD1E2DEBFCDBF00E00CBF12E0A0E036
:10031000B2E0EEEEF4E100E00BBF02C007900D92F8
:10032000AC34B107D9F723E0ACE4B2E001C01D92D0
:10033000A83AB207E1F711E0CEE7D1E000E006C04D
:1003400021970109802FFE010E946D0ACD37D10748
:1003500080E00807A9F70E9461080C94750A0C94C4
:100360000000E0919903F0919A03EF3FFE0709F432
:100370006AC01092E9021092EA021092EB02109207
:10038000EC021092E8021092E702E83008F05BC03D
:10039000DF01BB27AA0FBB1FAE5FBD4F8BE994E007
:1003A00011969C938E93E150E73070F5F0E088272A
:1003B000E352FE4F8F4F0C946D0A0C02E401EC01E6
:1003C000F401FC0114021C02809169008C7F8160A1
:1003D00080936900E89A089580916900837F846022
:1003E00080936900E99A0895809169008F7C80610B
:1003F00080936900EA9A0895809169008F73806400
:1004000080936900EB9A089580916A008C7F8160E7
:1004100080936A00EC9A089580916A00837F8460DB
:1004200080936A00ED9A089580916A008F7C8061C4
:1004300080936A00EE9A089580916A008F738064B9
:1004400080936A00EF9A0895282F30E0F901EC5468
:10045000FD4F9491F901E259FD4F4491285D3D4FC4
:10046000F9012491222309F435C0992311F1915007
:100470009231F8F4E92FF0E08827EE5BFD4F8F4FC3
:100480000C946D0A7302770254026B026F025902D8
:100490007A02800284028A028E02920298029C02F0
:1004A0005902A002A602AA02809180008F77809351
:1004B0008000E22FF0E0EE0FFF1FE25FFD4FA591FD
:1004C000B4918FB7F894EC91611148C040954E23D8
:1004D0004C938FBF0895809180008F7DE8CF8091ED
:1004E0008000877FE4CF84B58F7784BDE2CF84B569
:1004F0008F7DFBCF8091B0008F778093B000D9CFF4
:100500008091B0008F7DF9CF809190008F7780939C
:100510009000CFCF809190008F7DF9CF8091900097
:10052000877FF5CF8091A0008F778093A000C1CF07
:100530008091A0008F7DF9CF8091A000877FF5CFBB
:10054000809120018F7780932001B3CF809120018B
:100550008F7DF9CF80912001877FF5CF4E2BB8CFCB
:100560001F93CF93DF93182FD92F8091A70360E0BB
:10057000C1E0811102C061E0C0E080919B030E9454
:10058000240220919F033091A003129FC001139F6A
:10059000900D11248230910538F0880F991F880F33
:1005A000991F05970197F1F76C2F80919B030E948B
:1005B000240220919F033091A003D29FC001D39FBA
:1005C000900D11248230910538F0880F991F880F03
:1005D000991F05970197F1F7DF91CF911F9108952A
:1005E0003FB7F8948091E3029091E402A091E50274
:1005F000B091E60226B5A89B05C02F3F19F00196E1
:10060000A11DB11D3FBFBA2FA92F982F8827BC016C
:10061000CD01620F711D811D911D42E0660F771F94
:10062000881F991F4A95D1F708950895AF92BF92F8
:10063000CF92DF92EF92FF920F931F93CF93DF93AE
:100640006C017B018B01040F151FEB015E01AE18DD
:10065000BF08C017D10759F06991D601ED91FC91FF
:100660000190F081E02DC6011995892B79F7C5011C
:10067000DF91CF911F910F91FF90EF90DF90CF907E
:10068000BF90AF900895FC01538D448D252F30E02D
:10069000842F90E0821B930B541710F0CF9608958F
:1006A00001970895FC01918D828D981761F0A28DBC
:1006B000AE0FBF2FB11D5D968C91928D9F5F9F7382
:1006C000928F90E008958FEF9FEF0895FC01918D38
:1006D000828D981731F0828DE80FF11D858D90E0A5
:1006E00008958FEF9FEF0895FC01918D228D892F42
:1006F00090E0805C9F4F821B91098F73992708952A
:100700008DEE92E00E94740321E0892B09F420E031
:10071000822F0895FC01A48DA80FB92FB11DA35AF3
:10072000BF4F2C91848D90E001968F739927848F11
:10073000A689B7892C93A089B1898C918370806434
:100740008C93938D848D981306C00288F389E02DD5
:1007500080818F7D80830895EF92FF920F931F9386
:10076000CF93DF93EC0181E0888F9B8D8C8D981364
:100770001AC0E889F989808185FF15C09FB7F89470
:10078000EE89FF896083E889F989808183708064BC
:1007900080839FBF81E090E0DF91CF911F910F9107
:1007A000FF90EF900895F62E0B8D10E00F5F1F4F16
:1007B0000F731127E02E8C8D8E110CC00FB607FC25
:1007C000FACFE889F989808185FFF5CFCE010E94B3
:1007D0008A03F1CFEB8DEC0FFD2FF11DE35AFF4F94
:1007E000F0829FB7F8940B8FEA89FB898081806241
:1007F000CFCFCF93DF93EC01888D8823B9F0AA89FE
:10080000BB89E889F9898C9185FD03C0808186FDCB
:100810000DC00FB607FCF7CF8C9185FFF2CF80811A
:1008200085FFEDCFCE010E948A03E9CFDF91CF9102
:10083000089580E090E0892B29F00E9480038111C7
:100840000E94000080E090E0892B49F080E090E079
:10085000892B29F00E94000081110E94000080E095
:1008600090E0892B49F080E090E0892B29F00E94EC
:10087000000081110E94000080E090E0892B49F087
:1008800080E090E0892B29F00E94000081110C94F7
:1008900000000895FC0101900020E9F73197AF01B5
:1008A000481B590BBC018DEE92E00C9416038F92FD
:1008B0009F92AF92BF920F931F93CF93DF93CDB7C9
:1008C000DEB7A1970FB6F894DEBF0FBECDBF19A259
:1008D000423008F44AE08E010F5D1F4F842E912CA8
:1008E000B12CA12CA50194010E944B0AE62FB9015D
:1008F000CA01EA30F4F4E05DD801EE938D01232BB8
:10090000242B252B79F790E080E0109719F0CD018A
:100910000E944A04A1960FB6F894DEBF0FBECDBF69
:10092000DF91CF911F910F91BF90AF909F908F90CB
:100930000895E95CE1CF2F923F924F925F926F92C0
:100940007F928F929F92AF92BF92CF92DF92EF925F
:10095000FF920F931F93CF93DF93CDB7DEB76597C9
:100960000FB6F894DEBF0FBECDBF0E94F0026B0140
:100970007C018091D8029091D9022601481A590A27
:100980004DEC441640E1540608F4E0C08091D602D4
:100990009091D702009789F0209150023091510236
:1009A0001201221A330A910137FE03C031952195B5
:1009B0003109283C31050CF0C5C001969093D7024F
:1009C0008093D602029709F0BDC098E8692E91E0A5
:1009D000792E01E010E020904E0230904F023B86CD
:1009E0002A8649E050E0B301CE0101960E942E0A0A
:1009F0008B816C81681708F4682F70E08091500239
:100A0000909151020E94370A9B014091000250913F
:100A10000102649FC001659F900D749F900D112489
:100A200064E670E00E94370A8985A1E0B0E088237F
:100A300011F0A2E0B0E08D81829FA001839F500D54
:100A400011245D874C878E81829F1001839F300C1B
:100A500011243F862E868F81829FA001839F500D97
:100A60001124598B488B8885829F1001839F300CFD
:100A700011243B8A2A8AFD01EE0FFF1FE05BFD4F28
:100A8000812C912C54014A855B85415051095D8B25
:100A90004C8B8C899D89A817B90708F040C0880C39
:100AA000991CAA1CBB1C80819181AC012C843D84C3
:100AB0004219530957FF03C05195419551094617F3
:100AC000570770F4428153812E843F8442195309A1
:100AD00057FF03C051954195510946175707E0F05C
:100AE00048895989841B950B97FF03C0919581957F
:100AF000910986179707C8F4828193812A883B88D9
:100B00008219930997FF03C09195819591098617E2
:100B1000970758F4689480F812963496BACF4A85AD
:100B20005B854830510508F053C00F5F1F4F59E0F7
:100B3000650E711C0D30110509F04DCF1092D702D2
:100B40001092D60210924F0210924E0280914E02E5
:100B500090914F028334910540F010924F02109211
:100B60004E021092D7021092D60280914E029091BE
:100B70004F029C012F5F3F4F30934F0220934E0254
:100B8000880F991FFC01E05BFD4F51824082C092AB
:100B9000D802D092D902E092DA02F092DB02659696
:100BA0000FB6F894DEBF0FBECDBFDF91CF911F917E
:100BB0000F91FF90EF90DF90CF90BF90AF909F90FC
:100BC0008F907F906F905F904F903F902F900895FF
:100BD0008092E9029092EA02A092EB02B092EC02BB
:100BE0002C883D88369427943092E8022092E702C0
:100BF00030934D0220934C021093DD020093DC02EF
:100C00009DCF1F920F920FB60F9211242F933F93F7
:100C10008F939F93AF93BF938091DF029091E002F7
:100C2000A091E102B091E2023091DE0223E0230FB5
:100C30002D3758F50196A11DB11D2093DE0280933A
:100C4000DF029093E002A093E102B093E202809170
:100C5000E3029091E402A091E502B091E6020196D0
:100C6000A11DB11D8093E3029093E402A093E502DD
:100C7000B093E602BF91AF919F918F913F912F91D9
:100C80000F900FBE0F901F90189526E8230F029625
:100C9000A11DB11DD2CF1F920F920FB60F9211243A
:100CA0000BB60F922F933F934F935F936F937F9366
:100CB0008F939F93AF93BF93EF93FF93E0911002B5
:100CC000F09111021995FF91EF91BF91AF919F9112
:100CD0008F917F916F915F914F913F912F910F90E5
:100CE0000BBE0F900FBE0F901F9018951F920F9282
:100CF0000FB60F9211240BB60F922F933F934F9381
:100D00005F936F937F938F939F93AF93BF93EF9373
:100D1000FF93E0910E02F0910F021995FF91EF9170
:100D2000BF91AF919F918F917F916F915F914F9103
:100D30003F912F910F900BBE0F900FBE0F901F9001
:100D400018951F920F920FB60F9211240BB60F92A7
:100D50002F933F934F935F936F937F938F939F93C3
:100D6000AF93BF93EF93FF93E0910402F0910502DC
:100D70001995FF91EF91BF91AF919F918F917F91C5
:100D80006F915F914F913F912F910F900BBE0F90FC
:100D90000FBE0F901F9018951F920F920FB60F92D3
:100DA00011240BB60F922F933F934F935F936F9342
:100DB0007F938F939F93AF93BF93EF93FF93E091B4
:100DC0000202F09103021995FF91EF91BF91AF914B
:100DD0009F918F917F916F915F914F913F912F9153
:100DE0000F900BBE0F900FBE0F901F9018951F9283
:100DF0000F920FB60F9211240BB60F922F933F93C1
:100E00004F935F936F937F938F939F93AF93BF9312
:100E1000EF93FF93E0910C02F0910D021995FF9171
:100E2000EF91BF91AF919F918F917F916F915F9162
:100E30004F913F912F910F900BBE0F900FBE0F90CF
:100E40001F9018951F920F920FB60F9211240BB698
:100E50000F922F933F934F935F936F937F938F9353
:100E60009F93AF93BF93EF93FF93E0910A02F091AA
:100E70000B021995FF91EF91BF91AF919F918F91C7
:100E80007F916F915F914F913F912F910F900BBE8A
:100E90000F900FBE0F901F9018951F920F920FB6D4
:100EA0000F9211240BB60F922F933F934F935F93A2
:100EB0006F937F938F939F93AF93BF93EF93FF9322
:100EC000E0910802F09109021995FF91EF91BF910D
:100ED000AF919F918F917F916F915F914F913F91D2
:100EE0002F910F900BBE0F900FBE0F901F90189573
:100EF0001F920F920FB60F9211240BB60F922F93E1
:100F00003F934F935F936F937F938F939F93AF9391
:100F1000BF93EF93FF93E0910602F09107021995BA
:100F2000FF91EF91BF91AF919F918F917F916F91C1
:100F30005F914F913F912F910F900BBE0F900FBE7D
:100F40000F901F9018951F920F920FB60F921124B9
:100F50000BB60F922F933F934F935F936F937F93B3
:100F60008F939F93AF93BF93EF93FF938DEE92E098
:100F70000E948A03FF91EF91BF91AF919F918F9152
:100F80007F916F915F914F913F912F910F900BBE89
:100F90000F900FBE0F901F9018951F920F920FB6D3
:100FA0000F9211240BB60F922F938F939F93EF9371
:100FB000FF93E091FD02F091FE028081E091030336
:100FC000F091040382FD1DC09081809106038F5F24
:100FD0008F7320910703821741F0E0910603F0E040
:100FE000E351FD4F958F80930603FF91EF919F9101
:100FF0008F912F910F900BBE0F900FBE0F901F90EF
:1010000018958081F2CF0F931F93CF93DF93EC015C
:101010000FEF1FEF1B830A838AE090E09D838C8390
:1010200049E050E068E871E0CE0106960E942E0A81
:10103000198308838CE390E090930102809300026F
:101040001092E9021092EA021092EB021092EC0266
:10105000DF91CF911F910F910895EDEEF2E0138291
:10106000128288EE93E0A0E0B0E084839583A683AB
:10107000B78386E192E09183808385EC90E0958749
:10108000848784EC90E09787868780EC90E0918B52
:10109000808B81EC90E0938B828B82EC90E0958B3F
:1010A000848B86EC90E0978B868B118E128E138E3C
:1010B000148E89E993E00E9403088AE893E00C9477
:1010C0000308789484B5826084BD84B5816084BD52
:1010D00085B5826085BD85B5816085BD80916E00D6
:1010E000816080936E001092810080918100826007
:1010F0008093810080918100816080938100809144
:1011000080008160809380008091B1008460809332
:10111000B1008091B00081608093B0008091910017
:101120008260809391008091910081608093910012
:10113000809190008160809390008091A1008260F6
:101140008093A1008091A10081608093A100809193
:10115000A00081608093A000809121018260809333
:1011600021018091210181608093210180912001E2
:1011700081608093200180917A00846080937A005E
:1011800080917A00826080937A0080917A008160F9
:1011900080937A0080917A00806880937A00109220
:1011A000C100E091FD02F091FE0282E08083E091B7
:1011B000F902F091FA021082E091FB02F091FC0238
:1011C0008FEC808310920503E0910103F0910203FC
:1011D00086E08083E091FF02F091000380818061CE
:1011E0008083E091FF02F09100038081886080831A
:1011F000E091FF02F0910003808180688083E0919C
:10120000FF02F091000380818F7D808310929A030A
:10121000109299030E94B10182E390E090938D03B4
:1012200080938C03E0EAF2E02491EAE5F2E0849115
:10123000882399F090E0880F991FFC01EC50FE4F35
:10124000A591B491FC01E25FFD4F859194918FB718
:10125000F894EC91E22BEC938FBF84E292E00E9431
:101260004A048AE292E00E944A04812C912C5401A3
:10127000839422242A94322C8091E9029091EA02EC
:10128000A091EB02B091EC02892B8A2B8B2BE1F120
:101290008DE292E00E944A046091E9027091EA02B4
:1012A0008091EB029091EC024AE00E94570487E3A0
:1012B00092E00E944A046091E7027091E80290E097
:1012C00080E04AE00E9457048BE392E00E944A04C7
:1012D00080E492E00E944A046091DC027091DD0299
:1012E00090E080E04AE00E9457048AE292E00E9487
:1012F0004A041092E9021092EA021092EB02109254
:10130000EC020E941904B8CF80919B0390919C033A
:10131000019609F47DC0C0919903D0919A03CF3F03
:10132000DC0729F1C830F8F49E013327EC2FE15097
:10133000E73008F052C0F0E08827EE55F64F8F4FA7
:101340000C946D0AEF09A909E709E909EB09F1090C
:10135000F309E898220F331FF901EE5FFD4F85E195
:1013600093E09183808330929A0320929903F12C29
:10137000E12C80919D0390919E03E816F906D4F527
:1013800007E110E0D501C401002E04C0880F991FA9
:10139000AA1FBB1F0A94D2F781719571AA27BB2798
:1013A000892B8A2B8B2B09F18091A5039091A603A1
:1013B0000E94B0020150110928F78091A103909179
:1013C000A2030E94B0022FEFE21AF20AD2CFE998EC
:1013D000C1CFEA98BFCFEB98BDCFEC98BBCFED98CB
:1013E000B9CFEE98B7CFEF98B5CF8091A303909186
:1013F000A403DECF60E080919B030E942402CF3FD4
:10140000DC0731F0D0939A03C09399030E94B10195
:101410000E94F0026B017C0188EE482E83E0582E7A
:10142000612C712C0E94F0026C197D098E099F09B4
:10143000683E734081059105A8F391E0491A51086F
:101440006108710828EEC20E23E0D21EE11CF11CD7
:10145000411451046104710429F753CFFB01DC01ED
:1014600002C005900D9241505040D8F70895AA1B34
:10147000BB1B51E107C0AA1FBB1FA617B70710F07F
:10148000A61BB70B881F991F5A95A9F780959095B1
:10149000BC01CD010895A1E21A2EAA1BBB1BFD01C0
:1014A0000DC0AA1FBB1FEE1FFF1FA217B307E40743
:1014B000F50720F0A21BB30BE40BF50B661F771F9B
:1014C000881F991F1A9469F760957095809590957B
:1014D0009B01AC01BD01CF010895EE0FFF1F881FD6
:0E14E0008BBF0790F691E02D1994F894FFCF82
:1014EE003C0015031503150315031503150315030A
:1014FE00150300000000AC0316034303F903740345
:10150E00520366037365747570000D0A00526563AD
:10151E0065697665642000202F20006269742000C2
:0C152E0050726F746F636F6C3A20000005
:00000001FF
